{
  "contractName": "Lottery",
  "abi": [
    {
      "inputs": [],
      "stateMutability": "nonpayable",
      "type": "constructor"
    },
    {
      "anonymous": false,
      "inputs": [
        {
          "indexed": false,
          "internalType": "uint256",
          "name": "index",
          "type": "uint256"
        },
        {
          "indexed": false,
          "internalType": "address",
          "name": "gambler",
          "type": "address"
        },
        {
          "indexed": false,
          "internalType": "uint256",
          "name": "amount",
          "type": "uint256"
        },
        {
          "indexed": false,
          "internalType": "bytes1",
          "name": "challenges",
          "type": "bytes1"
        },
        {
          "indexed": false,
          "internalType": "uint256",
          "name": "answerBlockNumber",
          "type": "uint256"
        }
      ],
      "name": "BET",
      "type": "event"
    },
    {
      "anonymous": false,
      "inputs": [
        {
          "indexed": false,
          "internalType": "uint256",
          "name": "index",
          "type": "uint256"
        },
        {
          "indexed": false,
          "internalType": "address",
          "name": "gambler",
          "type": "address"
        },
        {
          "indexed": false,
          "internalType": "uint256",
          "name": "amount",
          "type": "uint256"
        },
        {
          "indexed": false,
          "internalType": "bytes1",
          "name": "challenges",
          "type": "bytes1"
        },
        {
          "indexed": false,
          "internalType": "bytes1",
          "name": "answer",
          "type": "bytes1"
        },
        {
          "indexed": false,
          "internalType": "uint256",
          "name": "answerBlockNumber",
          "type": "uint256"
        }
      ],
      "name": "DRAW",
      "type": "event"
    },
    {
      "anonymous": false,
      "inputs": [
        {
          "indexed": false,
          "internalType": "uint256",
          "name": "index",
          "type": "uint256"
        },
        {
          "indexed": false,
          "internalType": "address",
          "name": "gambler",
          "type": "address"
        },
        {
          "indexed": false,
          "internalType": "uint256",
          "name": "amount",
          "type": "uint256"
        },
        {
          "indexed": false,
          "internalType": "bytes1",
          "name": "challenges",
          "type": "bytes1"
        },
        {
          "indexed": false,
          "internalType": "bytes1",
          "name": "answer",
          "type": "bytes1"
        },
        {
          "indexed": false,
          "internalType": "uint256",
          "name": "answerBlockNumber",
          "type": "uint256"
        }
      ],
      "name": "FAIL",
      "type": "event"
    },
    {
      "anonymous": false,
      "inputs": [
        {
          "indexed": false,
          "internalType": "uint256",
          "name": "index",
          "type": "uint256"
        },
        {
          "indexed": false,
          "internalType": "address",
          "name": "gambler",
          "type": "address"
        },
        {
          "indexed": false,
          "internalType": "uint256",
          "name": "amount",
          "type": "uint256"
        },
        {
          "indexed": false,
          "internalType": "bytes1",
          "name": "challenges",
          "type": "bytes1"
        },
        {
          "indexed": false,
          "internalType": "uint256",
          "name": "answerBlockNumber",
          "type": "uint256"
        }
      ],
      "name": "REFUND",
      "type": "event"
    },
    {
      "anonymous": false,
      "inputs": [
        {
          "indexed": false,
          "internalType": "uint256",
          "name": "index",
          "type": "uint256"
        },
        {
          "indexed": false,
          "internalType": "address",
          "name": "gambler",
          "type": "address"
        },
        {
          "indexed": false,
          "internalType": "uint256",
          "name": "amount",
          "type": "uint256"
        },
        {
          "indexed": false,
          "internalType": "bytes1",
          "name": "challenges",
          "type": "bytes1"
        },
        {
          "indexed": false,
          "internalType": "bytes1",
          "name": "answer",
          "type": "bytes1"
        },
        {
          "indexed": false,
          "internalType": "uint256",
          "name": "answerBlockNumber",
          "type": "uint256"
        }
      ],
      "name": "WIN",
      "type": "event"
    },
    {
      "inputs": [],
      "name": "answerForTest",
      "outputs": [
        {
          "internalType": "bytes32",
          "name": "",
          "type": "bytes32"
        }
      ],
      "stateMutability": "view",
      "type": "function"
    },
    {
      "inputs": [],
      "name": "owner",
      "outputs": [
        {
          "internalType": "address payable",
          "name": "",
          "type": "address"
        }
      ],
      "stateMutability": "view",
      "type": "function"
    },
    {
      "inputs": [
        {
          "internalType": "bytes1",
          "name": "challenges",
          "type": "bytes1"
        }
      ],
      "name": "betAndDistribute",
      "outputs": [
        {
          "internalType": "bool",
          "name": "",
          "type": "bool"
        }
      ],
      "stateMutability": "payable",
      "type": "function"
    },
    {
      "inputs": [
        {
          "internalType": "bytes1",
          "name": "challenges",
          "type": "bytes1"
        }
      ],
      "name": "bet",
      "outputs": [
        {
          "internalType": "bool",
          "name": "",
          "type": "bool"
        }
      ],
      "stateMutability": "payable",
      "type": "function"
    },
    {
      "inputs": [],
      "name": "distribute",
      "outputs": [],
      "stateMutability": "nonpayable",
      "type": "function"
    },
    {
      "inputs": [],
      "name": "getPot",
      "outputs": [
        {
          "internalType": "uint256",
          "name": "pot",
          "type": "uint256"
        }
      ],
      "stateMutability": "view",
      "type": "function"
    },
    {
      "inputs": [
        {
          "internalType": "uint256",
          "name": "index",
          "type": "uint256"
        }
      ],
      "name": "getBetInfo",
      "outputs": [
        {
          "internalType": "uint256",
          "name": "answerBlockNumber",
          "type": "uint256"
        },
        {
          "internalType": "address",
          "name": "gambler",
          "type": "address"
        },
        {
          "internalType": "bytes1",
          "name": "challenges",
          "type": "bytes1"
        }
      ],
      "stateMutability": "view",
      "type": "function"
    },
    {
      "inputs": [
        {
          "internalType": "bytes1",
          "name": "challenges",
          "type": "bytes1"
        },
        {
          "internalType": "bytes32",
          "name": "answer",
          "type": "bytes32"
        }
      ],
      "name": "isMatch",
      "outputs": [
        {
          "internalType": "enum Lottery.BettingResult",
          "name": "",
          "type": "uint8"
        }
      ],
      "stateMutability": "pure",
      "type": "function"
    },
    {
      "inputs": [
        {
          "internalType": "bytes32",
          "name": "answer",
          "type": "bytes32"
        }
      ],
      "name": "setAnswerForTest",
      "outputs": [
        {
          "internalType": "bool",
          "name": "",
          "type": "bool"
        }
      ],
      "stateMutability": "nonpayable",
      "type": "function"
    }
  ],
  "bytecode": "0x60806040526000600660006101000a81548160ff02191690831515021790555034801561002b57600080fd5b50336000806101000a81548173ffffffffffffffffffffffffffffffffffffffff021916908373ffffffffffffffffffffffffffffffffffffffff1602179055506118468061007b6000396000f3fe6080604052600436106100865760003560e01c80638da5cb5b116100595780638da5cb5b1461015d57806399a167d714610188578063e16ea857146101c5578063e4fc6b6d146101f5578063f4b46f5b1461020c57610086565b8063403c9fa81461008b5780637009fa36146100b657806379141f80146100f357806384f7e4f014610132575b600080fd5b34801561009757600080fd5b506100a061023c565b6040516100ad9190610fac565b60405180910390f35b3480156100c257600080fd5b506100dd60048036038101906100d89190611002565b610246565b6040516100ea919061104a565b60405180910390f35b3480156100ff57600080fd5b5061011a60048036038101906101159190611091565b6102e7565b6040516101299392919061113a565b60405180910390f35b34801561013e57600080fd5b506101476103e5565b6040516101549190611180565b60405180910390f35b34801561016957600080fd5b506101726103eb565b60405161017f91906111bc565b60405180910390f35b34801561019457600080fd5b506101af60048036038101906101aa9190611203565b61040f565b6040516101bc91906112ba565b60405180910390f35b6101df60048036038101906101da91906112d5565b6105d0565b6040516101ec919061104a565b60405180910390f35b34801561020157600080fd5b5061020a6105ed565b005b610226600480360381019061022191906112d5565b610a49565b604051610233919061104a565b60405180910390f35b6000600554905090565b60008060009054906101000a900473ffffffffffffffffffffffffffffffffffffffff1673ffffffffffffffffffffffffffffffffffffffff163373ffffffffffffffffffffffffffffffffffffffff16146102d7576040517f08c379a00000000000000000000000000000000000000000000000000000000081526004016102ce90611385565b60405180910390fd5b8160018190555060019050919050565b60008060008060026000868152602001908152602001600020604051806060016040529081600082015481526020016001820160009054906101000a900473ffffffffffffffffffffffffffffffffffffffff1673ffffffffffffffffffffffffffffffffffffffff1673ffffffffffffffffffffffffffffffffffffffff1681526020016001820160149054906101000a900460f81b7effffffffffffffffffffffffffffffffffffffffffffffffffffffffffffff19167effffffffffffffffffffffffffffffffffffffffffffffffffffffffffffff1916815250509050806000015193508060200151925080604001519150509193909250565b60015481565b60008054906101000a900473ffffffffffffffffffffffffffffffffffffffff1681565b60008061041b84610b3e565b9050600061042885610b9f565b9050600061044c85600060208110610443576104426113a5565b5b1a60f81b610b3e565b9050600061047086600060208110610467576104666113a5565b5b1a60f81b610b9f565b9050817effffffffffffffffffffffffffffffffffffffffffffffffffffffffffffff1916847effffffffffffffffffffffffffffffffffffffffffffffffffffffffffffff19161480156105085750807effffffffffffffffffffffffffffffffffffffffffffffffffffffffffffff1916837effffffffffffffffffffffffffffffffffffffffffffffffffffffffffffff1916145b1561051a5760009450505050506105ca565b817effffffffffffffffffffffffffffffffffffffffffffffffffffffffffffff1916847effffffffffffffffffffffffffffffffffffffffffffffffffffffffffffff191614806105af5750807effffffffffffffffffffffffffffffffffffffffffffffffffffffffffffff1916837effffffffffffffffffffffffffffffffffffffffffffffffffffffffffffff1916145b156105c15760029450505050506105ca565b60019450505050505b92915050565b60006105db82610a49565b506105e46105ed565b60019050919050565b6000806105f8610f3a565b60008060045494505b6003548511610a3b5760026000868152602001908152602001600020604051806060016040529081600082015481526020016001820160009054906101000a900473ffffffffffffffffffffffffffffffffffffffff1673ffffffffffffffffffffffffffffffffffffffff1673ffffffffffffffffffffffffffffffffffffffff1681526020016001820160149054906101000a900460f81b7effffffffffffffffffffffffffffffffffffffffffffffffffffffffffffff19167effffffffffffffffffffffffffffffffffffffffffffffffffffffffffffff19168152505092506106f28360000151610c00565b91506000600281111561070857610707611243565b5b82600281111561071b5761071a611243565b5b141561095d5760006107308460000151610c62565b905061074084604001518261040f565b91506000600281111561075657610755611243565b5b82600281111561076957610768611243565b5b14156108005761079184602001516611c37937e0800060055461078c9190611403565b610c8a565b945060006005819055507f8219079e2d6c1192fb0ff7f78e6faaf5528ad6687e69749205d87bd4b156912b868560200151878760400151856000602081106107dc576107db6113a5565b5b1a60f81b89600001516040516107f7969594939291906114b8565b60405180910390a15b6001600281111561081457610813611243565b5b82600281111561082757610826611243565b5b14156108b3576611c37937e08000600560008282546108469190611403565b925050819055507f3b19d607433249d2ebc766ae82ca3848e9c064f1febb5147bc6e5b21d0adebc5868560200151600087604001518560006020811061088f5761088e6113a5565b5b1a60f81b89600001516040516108aa96959493929190611554565b60405180910390a15b6002808111156108c6576108c5611243565b5b8260028111156108d9576108d8611243565b5b141561095b576108f484602001516611c37937e08000610c8a565b94507f72ec2e949e4fad9380f9d5db3e2ed0e71cf22c51d8d66424508bdc761a3f4b0e86856020015187876040015185600060208110610937576109366113a5565b5b1a60f81b8960000151604051610952969594939291906114b8565b60405180910390a15b505b6001600281111561097157610970611243565b5b82600281111561098457610983611243565b5b141561098f57610a3b565b6002808111156109a2576109a1611243565b5b8260028111156109b5576109b4611243565b5b1415610a1e576109d083602001516611c37937e08000610c8a565b93507f59c0185881271a0f53d43e6ab9310091408f9e0ff9ae2512613de800f26b8de48584602001518686604001518760000151604051610a159594939291906115b5565b60405180910390a15b610a2785610d81565b508480610a3390611608565b955050610601565b846004819055505050505050565b60006611c37937e080003414610a94576040517f08c379a0000000000000000000000000000000000000000000000000000000008152600401610a8b9061169d565b60405180910390fd5b610a9d82610de5565b610adc576040517f08c379a0000000000000000000000000000000000000000000000000000000008152600401610ad390611709565b60405180910390fd5b7f100791de9f40bf2d56ffa6dc5597d2fd0b2703ea70bc7548cd74c04f5d215ab76001600354610b0c9190611729565b333485600343610b1c9190611403565b604051610b2d95949392919061175d565b60405180910390a160019050919050565b6000808290506004817effffffffffffffffffffffffffffffffffffffffffffffffffffffffffffff1916901c90506004817effffffffffffffffffffffffffffffffffffffffffffffffffffffffffffff1916901b905080915050919050565b6000808290506004817effffffffffffffffffffffffffffffffffffffffffffffffffffffffffffff1916901b90506004817effffffffffffffffffffffffffffffffffffffffffffffffffffffffffffff1916901c905080915050919050565b60008143118015610c1d575061010082610c1a9190611403565b43105b15610c2b5760009050610c5d565b814311610c3b5760019050610c5d565b61010082610c499190611403565b4310610c585760029050610c5d565b600290505b919050565b6000600660009054906101000a900460ff16610c8057600154610c83565b81405b9050919050565b600080600660009054906101000a900460ff16610ca8576000610cb6565b606483610cb591906117df565b5b905060008184610cc69190611729565b90508473ffffffffffffffffffffffffffffffffffffffff166108fc829081150290604051600060405180830381858888f19350505050158015610d0e573d6000803e3d6000fd5b5060008054906101000a900473ffffffffffffffffffffffffffffffffffffffff1673ffffffffffffffffffffffffffffffffffffffff166108fc839081150290604051600060405180830381858888f19350505050158015610d75573d6000803e3d6000fd5b50809250505092915050565b6000600260008381526020019081526020016000206000808201600090556001820160006101000a81549073ffffffffffffffffffffffffffffffffffffffff02191690556001820160146101000a81549060ff0219169055505060019050919050565b6000610def610f3a565b33816020019073ffffffffffffffffffffffffffffffffffffffff16908173ffffffffffffffffffffffffffffffffffffffff1681525050600343610e349190611403565b8160000181815250508281604001907effffffffffffffffffffffffffffffffffffffffffffffffffffffffffffff191690817effffffffffffffffffffffffffffffffffffffffffffffffffffffffffffff191681525050806002600060035481526020019081526020016000206000820151816000015560208201518160010160006101000a81548173ffffffffffffffffffffffffffffffffffffffff021916908373ffffffffffffffffffffffffffffffffffffffff16021790555060408201518160010160146101000a81548160ff021916908360f81c021790555090505060036000815480929190610f2b90611608565b91905055506001915050919050565b604051806060016040528060008152602001600073ffffffffffffffffffffffffffffffffffffffff16815260200160007effffffffffffffffffffffffffffffffffffffffffffffffffffffffffffff191681525090565b6000819050919050565b610fa681610f93565b82525050565b6000602082019050610fc16000830184610f9d565b92915050565b600080fd5b6000819050919050565b610fdf81610fcc565b8114610fea57600080fd5b50565b600081359050610ffc81610fd6565b92915050565b60006020828403121561101857611017610fc7565b5b600061102684828501610fed565b91505092915050565b60008115159050919050565b6110448161102f565b82525050565b600060208201905061105f600083018461103b565b92915050565b61106e81610f93565b811461107957600080fd5b50565b60008135905061108b81611065565b92915050565b6000602082840312156110a7576110a6610fc7565b5b60006110b58482850161107c565b91505092915050565b600073ffffffffffffffffffffffffffffffffffffffff82169050919050565b60006110e9826110be565b9050919050565b6110f9816110de565b82525050565b60007fff0000000000000000000000000000000000000000000000000000000000000082169050919050565b611134816110ff565b82525050565b600060608201905061114f6000830186610f9d565b61115c60208301856110f0565b611169604083018461112b565b949350505050565b61117a81610fcc565b82525050565b60006020820190506111956000830184611171565b92915050565b60006111a6826110be565b9050919050565b6111b68161119b565b82525050565b60006020820190506111d160008301846111ad565b92915050565b6111e0816110ff565b81146111eb57600080fd5b50565b6000813590506111fd816111d7565b92915050565b6000806040838503121561121a57611219610fc7565b5b6000611228858286016111ee565b925050602061123985828601610fed565b9150509250929050565b7f4e487b7100000000000000000000000000000000000000000000000000000000600052602160045260246000fd5b6003811061128357611282611243565b5b50565b600081905061129482611272565b919050565b60006112a482611286565b9050919050565b6112b481611299565b82525050565b60006020820190506112cf60008301846112ab565b92915050565b6000602082840312156112eb576112ea610fc7565b5b60006112f9848285016111ee565b91505092915050565b600082825260208201905092915050565b7f6f6e6c79206f776e65722063616e2073657420616e7377657220666f7220746560008201527f7374000000000000000000000000000000000000000000000000000000000000602082015250565b600061136f602283611302565b915061137a82611313565b604082019050919050565b6000602082019050818103600083015261139e81611362565b9050919050565b7f4e487b7100000000000000000000000000000000000000000000000000000000600052603260045260246000fd5b7f4e487b7100000000000000000000000000000000000000000000000000000000600052601160045260246000fd5b600061140e82610f93565b915061141983610f93565b9250827fffffffffffffffffffffffffffffffffffffffffffffffffffffffffffffffff0382111561144e5761144d6113d4565b5b828201905092915050565b6000819050919050565b600061147e611479611474846110be565b611459565b6110be565b9050919050565b600061149082611463565b9050919050565b60006114a282611485565b9050919050565b6114b281611497565b82525050565b600060c0820190506114cd6000830189610f9d565b6114da60208301886114a9565b6114e76040830187610f9d565b6114f4606083018661112b565b611501608083018561112b565b61150e60a0830184610f9d565b979650505050505050565b6000819050919050565b600061153e61153961153484611519565b611459565b610f93565b9050919050565b61154e81611523565b82525050565b600060c0820190506115696000830189610f9d565b61157660208301886114a9565b6115836040830187611545565b611590606083018661112b565b61159d608083018561112b565b6115aa60a0830184610f9d565b979650505050505050565b600060a0820190506115ca6000830188610f9d565b6115d760208301876114a9565b6115e46040830186610f9d565b6115f1606083018561112b565b6115fe6080830184610f9d565b9695505050505050565b600061161382610f93565b91507fffffffffffffffffffffffffffffffffffffffffffffffffffffffffffffffff821415611646576116456113d4565b5b600182019050919050565b7f4e6f7420656e6f75676820455448000000000000000000000000000000000000600082015250565b6000611687600e83611302565b915061169282611651565b602082019050919050565b600060208201905081810360008301526116b68161167a565b9050919050565b7f4661696c20746f206164206e65772042657420496e666f000000000000000000600082015250565b60006116f3601783611302565b91506116fe826116bd565b602082019050919050565b60006020820190508181036000830152611722816116e6565b9050919050565b600061173482610f93565b915061173f83610f93565b925082821015611752576117516113d4565b5b828203905092915050565b600060a0820190506117726000830188610f9d565b61177f60208301876110f0565b61178c6040830186610f9d565b611799606083018561112b565b6117a66080830184610f9d565b9695505050505050565b7f4e487b7100000000000000000000000000000000000000000000000000000000600052601260045260246000fd5b60006117ea82610f93565b91506117f583610f93565b925082611805576118046117b0565b5b82820490509291505056fea2646970667358221220cbadeeba3bda9df0ccd68fe3d135017581b1aefc7c143b167fd835373996c27764736f6c634300080a0033",
  "immutableReferences": {},
  "source": "// SPDX-License-Identifier: UNLICENSED\npragma solidity >=0.4.22 <0.9.0;\n\ncontract Lottery {\n    struct BetInfo {\n        uint answerBlockNumber;\n        address payable gambler;\n        bytes1 challenges;\n    }\n\n    address payable public owner;\n    bytes32 public answerForTest;\n\n    uint constant internal BLOCK_LIMIT = 256;\n    uint constant internal BET_BLOCK_INTERVAL = 3;\n    uint constant internal BET_AMOUNT = 0.005 ether;\n\n    mapping(uint => BetInfo) private _bets;\n    uint private _tail;\n    uint private _head;\n    uint private _pot;\n    bool private mode = false; // false: test mode, true: real mode\n\n    enum BlockStatus {\n        Checkable, NotRevealed, BlockLimitPassed\n    }\n\n    enum BettingResult {\n        Win, Fail, Draw\n    }\n\n    event BET(uint index, address gambler, uint amount, bytes1 challenges, uint answerBlockNumber);\n    event WIN(uint index, address gambler, uint amount, bytes1 challenges, bytes1 answer, uint answerBlockNumber);\n    event FAIL(uint index, address gambler, uint amount, bytes1 challenges, bytes1 answer, uint answerBlockNumber);\n    event DRAW(uint index, address gambler, uint amount, bytes1 challenges, bytes1 answer, uint answerBlockNumber);\n    event REFUND(uint index, address gambler, uint amount, bytes1 challenges, uint answerBlockNumber);\n\n    constructor() {\n        owner = payable(msg.sender);\n    }\n\n\n    /**\n     * @dev    .\n     * @param challenges \n     * @return     \n     */\n    function betAndDistribute(bytes1 challenges) public payable returns (bool) {\n        bet(challenges);\n\n        distribute();\n\n        return true;\n    }\n\n    /**\n     * @dev  .  0.005 ETH ,          .( 0x )\n     * @param challenges \n     * @return     \n     */\n    function bet(bytes1 challenges) public payable returns (bool) {\n        require(msg.value == BET_AMOUNT, \"Not enough ETH\");\n\n        require(pushBet(challenges), \"Fail to ad new Bet Info\");\n\n        emit BET(_tail - 1, msg.sender, msg.value, challenges, block.number + BET_BLOCK_INTERVAL);\n\n        return true;\n    }\n\n    /**\n     * @dev    .\n     *     :   .\n     *     :  .\n     *         :  .\n     */\n    function distribute() public {\n        uint cur;\n        uint transferAmount;\n        BetInfo memory b;\n        BlockStatus status;\n        BettingResult result;\n\n        for(cur=_head; cur <= _tail; cur++) {\n            b = _bets[cur];\n            status = getBlockStatus(b.answerBlockNumber);\n\n            if(status == BlockStatus.Checkable) {\n                bytes32 answer = getAnswerBlock(b.answerBlockNumber);\n                result = isMatch(b.challenges, answer);\n                \n                if(result == BettingResult.Win) {\n                    transferAmount = transferAfterPayingFee(b.gambler, _pot + BET_AMOUNT);\n                    _pot = 0;\n\n                    emit WIN(cur, b.gambler, transferAmount, b.challenges, answer[0], b.answerBlockNumber);\n                }\n\n                if(result == BettingResult.Fail) {\n                    _pot += BET_AMOUNT;\n\n                    emit FAIL(cur, b.gambler, 0, b.challenges, answer[0], b.answerBlockNumber);\n                }\n\n                if(result == BettingResult.Draw) {\n                    transferAmount = transferAfterPayingFee(b.gambler, BET_AMOUNT);\n\n                    emit DRAW(cur, b.gambler, transferAmount, b.challenges, answer[0], b.answerBlockNumber);\n                }\n            }\n\n            if(status == BlockStatus.NotRevealed) {\n                break;\n            }\n\n            if(status == BlockStatus.BlockLimitPassed) {\n                transferAmount = transferAfterPayingFee(b.gambler, BET_AMOUNT);\n\n                emit REFUND(cur, b.gambler, transferAmount, b.challenges, b.answerBlockNumber);\n            }\n \n            \n            popBet(cur);\n        }\n\n        _head = cur;\n    }\n\n    function getPot() public view returns(uint pot) {\n        return _pot;\n    }\n\n    function getBetInfo(uint index) public view returns (uint answerBlockNumber, address gambler, bytes1 challenges) {\n        BetInfo memory b = _bets[index];\n        answerBlockNumber = b.answerBlockNumber;\n        gambler = b.gambler;\n        challenges = b.challenges;\n    }\n\n    /**\n     * @dev    .\n     * @param challenges  \n     * @param answer  \n     * @return \n     */\n    function isMatch(bytes1 challenges, bytes32 answer) public pure returns(BettingResult) {\n        bytes1 c1 = getFirstWord(challenges);\n        bytes1 c2 = getSecondWord(challenges);\n\n        bytes1 a1 = getFirstWord(answer[0]);\n        bytes1 a2 = getSecondWord(answer[0]);\n\n        if (c1 == a1 && c2 == a2) {\n            return BettingResult.Win;\n        }\n\n        if (c1 == a1 || c2 == a2) {\n            return BettingResult.Draw;\n        }\n\n        return BettingResult.Fail;\n    }\n\n    function setAnswerForTest(bytes32 answer) public returns(bool) {\n        require(msg.sender == owner, \"only owner can set answer for test\");\n        answerForTest = answer;\n        return true;\n    }\n\n    function getFirstWord(bytes1 word) internal pure returns(bytes1) {\n        bytes1 w = word;\n        w = w >> 4;\n        w = w << 4;\n        return w;\n    }\n\n    function getSecondWord(bytes1 word) internal pure returns(bytes1) {\n        bytes1 w = word;\n        w = w << 4;\n        w = w >> 4;\n        return w;\n    }\n\n    function pushBet(bytes1 challenges) internal returns (bool) {\n        BetInfo memory b;\n        b.gambler = payable(msg.sender);\n        b.answerBlockNumber = block.number + BET_BLOCK_INTERVAL;\n        b.challenges = challenges;\n\n        _bets[_tail] = b;\n        _tail++;\n\n        return true;\n    }\n\n    function popBet(uint index) internal returns (bool) {\n        delete _bets[index];\n        return true;\n    }\n\n    function getBlockStatus(uint answerBlockNumber) internal view returns(BlockStatus) {\n        if(block.number > answerBlockNumber && block.number < answerBlockNumber + BLOCK_LIMIT) {\n            return BlockStatus.Checkable;\n        }\n\n        if(block.number <= answerBlockNumber) {\n            return BlockStatus.NotRevealed;\n        }\n\n        if(block.number >= answerBlockNumber + BLOCK_LIMIT) {\n            return BlockStatus.BlockLimitPassed;\n        }\n\n        return BlockStatus.BlockLimitPassed;\n    }\n\n    function getAnswerBlock(uint answerBlockNumber) internal view returns(bytes32 answer) {\n        return mode ? blockhash(answerBlockNumber) : answerForTest;\n    }\n\n    function transferAfterPayingFee(address payable gambler, uint amount) internal returns (uint) {\n        uint fee = mode ? amount / 100 : 0;\n        uint amountWithoutFee = amount - fee;\n\n        gambler.transfer(amountWithoutFee);\n\n        owner.transfer(fee);\n\n        return amountWithoutFee;\n    }\n\n}\n",
  "sourcePath": "C:\\Users\\ygaso\\workspace\\lottery-dapp\\contracts\\Lottery.sol",
  "compiler": {
    "name": "solc",
    "version": "0.8.10+commit.fc410830.Emscripten.clang"
  },
  "schemaVersion": "3.4.4",
  "updatedAt": "2022-01-17T10:35:21.040Z",
  "devdoc": {
    "kind": "dev",
    "methods": {
      "bet(bytes1)": {
        "details": " .  0.005 ETH ,          .( 0x )",
        "params": {
          "challenges": ""
        },
        "returns": {
          "_0": "    "
        }
      },
      "betAndDistribute(bytes1)": {
        "details": "   .",
        "params": {
          "challenges": ""
        },
        "returns": {
          "_0": "    "
        }
      },
      "distribute()": {
        "details": "   .     :   .     :  .         :  ."
      },
      "isMatch(bytes1,bytes32)": {
        "details": "   .",
        "params": {
          "answer": " ",
          "challenges": " "
        },
        "returns": {
          "_0": ""
        }
      }
    },
    "version": 1
  },
  "userdoc": {
    "kind": "user",
    "methods": {},
    "version": 1
  }
}